10000000140602507300005LABORATORIOS SENOSIAIN SA DE CV     PRUEBA              15D01
210010000000000224220660100000000001650746348000028
30001540010000000000002704150100000000090165465678PRUEBA          ANA ISABEL,VIVEROS/CASTRO                                                                                                                                                                          000000                                                                                                                                                        
30001540010000000000008112440100000000070062114582PRUEBA          FLORA DEL CARMEN,PEREZ/CANO                                                                                                                                                                        000000                                                                                                                                                        
30001540010000000000006628980100000000090386024323PRUEBA          MARIA CRUZ ERIKA,PEREZ/VERA                                                                                                                                                                        000000                                                                                                                                                        
30001540010000000000004771910100000000070026881755PRUEBA          CAROLINA DEL CARMEN,REYES/ALMANZA                                                                                                                                                                  000000                                                                                                                                                        
30001540010000000000003643290100000000090405965835PRUEBA          SILVIA IMELDA,ROSALES/SANDOVAL                                                                                                                                                                     000000                                                                                                                                                        
30001540010000000000011718670300005204165181151691PRUEBA          TALIA REGINA,VARGAS/TOVAR                                                                                                                                                                          000000                                                                                                                                                        
30001540010000000000009886550100000000070161325250PRUEBA          GABRIELA,RODRIGUEZ/NARVAEZ                                                                                                                                                                         000000                                                                                                                                                        
30001540010000000000009886550100000000070161325250PRUEBA          GABRIELA,RODRIGUEZ/NARVAEZ                                                                                                                                                                         000000                                                                                                                                                        
30001540010000000000005939730300005204167178143699PRUEBA          VANIA,VAZQUEZ/MORALES                                                                                                                                                                              000000                                                                                                                                                        
30001540010000000000003664390100000000070104975559PRUEBA          MARIA DEL ROCIO,SORIANO/AGUILA                                                                                                                                                                     000000                                                                                                                                                        
30001540010000000000009477340100000000070102995366PRUEBA          PILAR,DORANTES/ANGELES                                                                                                                                                                             000000                                                                                                                                                        
30001540010000000000010183750100000000090177991944PRUEBA          ERENDIRA PAOLA,GODINEZ/BARRERA                                                                                                                                                                     000000                                                                                                                                                        
30001540010000000000007614350300005204160217212690PRUEBA          YOLANDA,COLLAZ/GUTIERREZ                                                                                                                                                                           000000                                                                                                                                                        
30001540010000000000008182680100000000070161212308PRUEBA          DENISE GABRIELA,BRISENO/REYES                                                                                                                                                                      000000                                                                                                                                                        
30001540010000000000015666050100000000070207778123PRUEBA          MAYRA,CAMACHO/SALINAS                                                                                                                                                                              000000                                                                                                                                                        
30001540010000000000006402560100000000070103475390PRUEBA          CLAUDIA IVONNE,OROZCO/GAMA                                                                                                                                                                         000000                                                                                                                                                        
30001540010000000000004342920100000000070145133600PRUEBA          BRENDA MARGARITA,LOPEZ/ALONSO                                                                                                                                                                      000000                                                                                                                                                        
30001540010000000000010089790100000000070074308714PRUEBA          DULCE MARIA,FRANCO/CATANO                                                                                                                                                                          000000                                                                                                                                                        
30001540010000000000007255970100000000070211211723PRUEBA          CINTIA IVETTE,GARCIA/BADILLO                                                                                                                                                                       000000                                                                                                                                                        
30001540010000000000005550290300005256782397828396PRUEBA          HUMBERTO DE JESUS,FLORES/SANCHEZ                                                                                                                                                                   000000                                                                                                                                                        
30001540010000000000009370730100000000070146865303PRUEBA          BIANCA VICTORIA,BUENO/JURADO                                                                                                                                                                       000000                                                                                                                                                        
30001540010000000000003987630100000000070185081859PRUEBA          JULIA ALEXANDRA,RODRIGUEZ/MERA                                                                                                                                                                     000000                                                                                                                                                        
30001540010000000000014066890100000000070212882362PRUEBA          ANA ESPERANZA,VAZQUEZ/TREJO                                                                                                                                                                        000000                                                                                                                                                        
30001540010000000000007792850100000000070185655138PRUEBA          ADRIANA,GARCIA/SOLIS                                                                                                                                                                               000000                                                                                                                                                        
30001540010000000000003052350100000000090521920199PRUEBA          MELISSA VANESA,AGUIRRE/MIRAMONTES                                                                                                                                                                  000000                                                                                                                                                        
30001540010000000000001205990100004180605346268493PRUEBA          GUADALUPE AGUIRRE ESCOBAR                                                                                                                                                                          000000                                                                                                                                                        
30001540010000000000008165450100000000090252476899PRUEBA          SANDRA ESTELA,MARTINEZ/CRUZ                                                                                                                                                                        000000                                                                                                                                                        
30001540010000000000024856410300005204164849404394PRUEBA          DANAE YAEL,COLIN/SOLIS                                                                                                                                                                             000000                                                                                                                                                        
4001000028000000000022422066000001000000000022422066